:100000000C942A000C941B040C9448040C943C009F
:100010000C943C000C943C000C943C000C943C0070
:100020000C943C000C943C000C943C000C943C0060
:100030000C943C000C943C000C943C000C943C0050
:100040000C943C000C943C000C943C000C943C0040
:100050000C943C0011241FBECFE5D8E0DEBFCDBF1D
:1000600010E0A0E6B0E001C01D92A536B107E1F7AF
:100070000E9499040C94D6040C940000DF93CF9353
:10008000CDB7DEB727970FB6F894DEBF0FBECDBF52
:1000900089836A834B838A81883008F0EAC08B8128
:1000A000882309F074C08981282F30E03F832E8394
:1000B0008E819F818130910559F12E813F812230BF
:1000C00031052CF48E819F81009769F0D2C02E817A
:1000D0003F812230310589F18E819F8183309105E6
:1000E00009F440C0C6C0AAE3B0E0EAE3F0E08081D2
:1000F000482F8A81282F30E081E090E0022E02C054
:10010000880F991F0A94E2F7809584238C93B1C0DD
:10011000A7E3B0E0E7E3F0E08081482F8A81282F51
:1001200030E081E090E0022E02C0880F991F0A940F
:10013000E2F7809584238C939CC0A4E3B0E0E4E3D1
:10014000F0E08081482F8A81282F30E081E090E024
:10015000022E02C0880F991F0A94E2F7809584232B
:100160008C9387C0A1E3B0E0E1E3F0E08081482F09
:100170008A81282F30E081E090E0022E02C0880FB3
:10018000991F0A94E2F7809584238C9372C08B8127
:10019000813009F06EC08981282F30E03D832C83A7
:1001A0008C819D818130910549F12C813D812230E6
:1001B00031052CF48C819D81009761F05AC02C810F
:1001C0003D812230310571F18C819D818330910513
:1001D000E9F14FC0AAE3B0E0EAE3F0E08081482F04
:1001E0008A81282F30E081E090E0022E02C0880F43
:1001F000991F0A94E2F7842B8C933BC0A7E3B0E0ED
:10020000E7E3F0E08081482F8A81282F30E081E009
:1002100090E0022E02C0880F991F0A94E2F7842B07
:100220008C9327C0A4E3B0E0E4E3F0E08081482FA2
:100230008A81282F30E081E090E0022E02C0880FF2
:10024000991F0A94E2F7842B8C9313C0A1E3B0E0CA
:10025000E1E3F0E08081482F8A81282F30E081E0BF
:1002600090E0022E02C0880F991F0A94E2F7842BB7
:100270008C9327960FB6F894DEBF0FBECDBFCF91FB
:10028000DF910895DF93CF93CDB7DEB727970FB6F1
:10029000F894DEBF0FBECDBF89836A834B838A810A
:1002A000883008F0EAC08B81882309F074C0898106
:1002B000282F30E03F832E838E819F8181309105EE
:1002C00059F12E813F81223031052CF48E819F819E
:1002D000009769F0D2C02E813F812230310589F12B
:1002E0008E819F818330910509F440C0C6C0ABE385
:1002F000B0E0EBE3F0E08081482F8A81282F30E0E6
:1003000081E090E0022E02C0880F991F0A94E2F764
:10031000809584238C93B1C0A8E3B0E0E8E3F0E0DB
:100320008081482F8A81282F30E081E090E0022EE2
:1003300002C0880F991F0A94E2F7809584238C935A
:100340009CC0A5E3B0E0E5E3F0E08081482F8A811E
:10035000282F30E081E090E0022E02C0880F991F24
:100360000A94E2F7809584238C9387C0A2E3B0E0DF
:10037000E2E3F0E08081482F8A81282F30E081E09D
:1003800090E0022E02C0880F991F0A94E2F7809530
:1003900084238C9372C08B81813009F06EC0898177
:1003A000282F30E03D832C838C819D818130910505
:1003B00049F12C813D81223031052CF48C819D81C5
:1003C000009761F05AC02C813D812230310571F1D6
:1003D0008C819D8183309105E9F14FC0ABE3B0E0A2
:1003E000EBE3F0E08081482F8A81282F30E081E024
:1003F00090E0022E02C0880F991F0A94E2F7842B26
:100400008C933BC0A8E3B0E0E8E3F0E08081482FA4
:100410008A81282F30E081E090E0022E02C0880F10
:10042000991F0A94E2F7842B8C9327C0A5E3B0E0D0
:10043000E5E3F0E08081482F8A81282F30E081E0D9
:1004400090E0022E02C0880F991F0A94E2F7842BD5
:100450008C9313C0A2E3B0E0E2E3F0E08081482F88
:100460008A81282F30E081E090E0022E02C0880FC0
:10047000991F0A94E2F7842B8C9327960FB6F89471
:10048000DEBF0FBECDBFCF91DF910895DF93CF9335
:1004900000D000D00F92CDB7DEB78A836B838B81FB
:1004A000883008F067C08A81282F30E03D832C8394
:1004B0004C815D814130510541F18C819D818230BB
:1004C000910534F42C813D812115310561F052C034
:1004D0004C815D814230510551F18C819D81833089
:1004E0009105B9F147C0E9E3F0E08081282F30E0C1
:1004F0008B81882F90E0A90102C0559547958A9578
:10050000E2F7CA018170898335C0E6E3F0E08081BB
:10051000282F30E08B81882F90E0A90102C05595EB
:1005200047958A95E2F7CA018170898323C0E3E386
:10053000F0E08081282F30E08B81882F90E0A901A6
:1005400002C0559547958A95E2F7CA018170898363
:1005500011C0E0E3F0E08081282F30E08B81882F0C
:1005600090E0A90102C0559547958A95E2F7CA0126
:100570008170898389810F900F900F900F900F9059
:10058000CF91DF910895DF93CF9300D000D0CDB706
:10059000DEB789836A838A81883008F06EC08981DA
:1005A000282F30E03C832B838B819C818130910507
:1005B00049F12B813C81223031052CF48B819C81C7
:1005C000009761F05AC02B813C812230310571F1D6
:1005D0008B819C8183309105E9F14FC0ABE3B0E0A2
:1005E000EBE3F0E08081482F8A81282F30E081E022
:1005F00090E0022E02C0880F991F0A94E2F7842728
:100600008C933BC0A8E3B0E0E8E3F0E08081482FA2
:100610008A81282F30E081E090E0022E02C0880F0E
:10062000991F0A94E2F784278C9327C0A5E3B0E0D2
:10063000E5E3F0E08081482F8A81282F30E081E0D7
:1006400090E0022E02C0880F991F0A94E2F78427D7
:100650008C9313C0A2E3B0E0E2E3F0E08081482F86
:100660008A81282F30E081E090E0022E02C0880FBE
:10067000991F0A94E2F784278C930F900F900F90A4
:100680000F90CF91DF910895DF93CF9300D000D0EA
:10069000CDB7DEB789836A838981282F30E03C8318
:1006A0002B838B819C8181309105D1F02B813C8102
:1006B000223031052CF48B819C81009761F01EC0A3
:1006C0002B813C812230310581F08B819C818330EC
:1006D000910581F013C0EAE3F0E08A8180830EC0C7
:1006E000E7E3F0E08A81808309C0E4E3F0E08A81F7
:1006F000808304C0E1E3F0E08A8180830F900F9053
:100700000F900F90CF91DF910895DF93CF9300D09A
:1007100000D0CDB7DEB789836A838981282F30E086
:100720003C832B838B819C8181309105D1F02B817F
:100730003C81223031052CF48B819C81009761F043
:100740001EC02B813C812230310581F08B819C8140
:100750008330910581F013C0EBE3F0E08A81808360
:100760000EC0E8E3F0E08A81808309C0E5E3F0E0B1
:100770008A81808304C0E2E3F0E08A8180830F9065
:100780000F900F900F90CF91DF910895DF93CF934B
:10079000CDB7DEB7A5E5B0E0E5E5F0E080818160AA
:1007A0008C93A5E5B0E0E5E5F0E0808182608C9374
:1007B000A5E5B0E0E5E5F0E0808184608C93A5E5F7
:1007C000B0E0E5E5F0E0808188608C93ABE5B0E0D7
:1007D000EBE5F0E0808180648C93ABE5B0E0EBE585
:1007E000F0E0808180688C93AFE5B0E0EFE5F0E069
:1007F000808180688C93CF91DF910895DF93CF93B0
:1008000000D000D0CDB7DEB79A8389837C836B8319
:1008100089819A8190936100809360008B819C8193
:1008200090936300809362000F900F900F900F9051
:10083000CF91DF9108951F920F920FB60F9211245E
:100840002F933F934F935F936F937F938F939F93D8
:10085000AF93BF93EF93FF93DF93CF93CDB7DEB703
:10086000E0916000F09161000995CF91DF91FF91D7
:10087000EF91BF91AF919F918F917F916F915F9118
:100880004F913F912F910F900FBE0F901F90189591
:100890001F920F920FB60F9211242F933F934F93F5
:1008A0005F936F937F938F939F93AF93BF93EF93D8
:1008B000FF93DF93CF93CDB7DEB7E0916200F09165
:1008C00063000995CF91DF91FF91EF91BF91AF91B7
:1008D0009F918F917F916F915F914F913F912F9158
:1008E0000F900FBE0F901F901895DF93CF93CDB749
:1008F000DEB780916400813039F481E060E041E04E
:100900000E94420110926400CF91DF910895DF931D
:10091000CF93CDB7DEB780916400813039F481E0A8
:1009200061E041E00E94420110926400CF91DF91AA
:100930000895DF93CF93CDB7DEB781E08093640055
:1009400081E060E041E00E943E0081E061E041E042
:100950000E943E0081E062E040E00E943E0083E0B1
:1009600062E040E00E943E0083E063E040E00E94DD
:100970003E0085E794E027E834E0B9010E94FE03D9
:100980000E94C60381E062E00E9446028130D1F7F6
:1009900081E060E040E00E94420181E061E040E0EF
:1009A0000E94420181E080936400ECCFF894FFCF75
:00000001FF
